{
  "abi": [
    {
      "type": "constructor",
      "inputs": [
        {
          "name": "initialOwner",
          "type": "address",
          "internalType": "address"
        },
        {
          "name": "_blueToken",
          "type": "address",
          "internalType": "address"
        },
        {
          "name": "_rewardValue",
          "type": "uint256",
          "internalType": "uint256"
        },
        {
          "name": "_treasury",
          "type": "address",
          "internalType": "address"
        },
        {
          "name": "_admin",
          "type": "address",
          "internalType": "address"
        }
      ],
      "stateMutability": "nonpayable"
    },
    {
      "type": "function",
      "name": "admin",
      "inputs": [],
      "outputs": [
        {
          "name": "",
          "type": "address",
          "internalType": "address"
        }
      ],
      "stateMutability": "view"
    },
    {
      "type": "function",
      "name": "contactExchange",
      "inputs": [
        {
          "name": "hashedUserIds",
          "type": "uint256",
          "internalType": "uint256"
        }
      ],
      "outputs": [
        {
          "name": "",
          "type": "bool",
          "internalType": "bool"
        }
      ],
      "stateMutability": "view"
    },
    {
      "type": "function",
      "name": "exchangeContact",
      "inputs": [
        {
          "name": "_userAddress",
          "type": "address",
          "internalType": "address"
        },
        {
          "name": "_userId",
          "type": "uint256",
          "internalType": "uint256"
        },
        {
          "name": "_contactAddress",
          "type": "address",
          "internalType": "address"
        },
        {
          "name": "_contactId",
          "type": "uint256",
          "internalType": "uint256"
        }
      ],
      "outputs": [],
      "stateMutability": "nonpayable"
    },
    {
      "type": "function",
      "name": "getRewardValue",
      "inputs": [],
      "outputs": [
        {
          "name": "",
          "type": "uint256",
          "internalType": "uint256"
        }
      ],
      "stateMutability": "view"
    },
    {
      "type": "function",
      "name": "i_blueToken",
      "inputs": [],
      "outputs": [
        {
          "name": "",
          "type": "address",
          "internalType": "contract IERC20"
        }
      ],
      "stateMutability": "view"
    },
    {
      "type": "function",
      "name": "owner",
      "inputs": [],
      "outputs": [
        {
          "name": "",
          "type": "address",
          "internalType": "address"
        }
      ],
      "stateMutability": "view"
    },
    {
      "type": "function",
      "name": "renounceOwnership",
      "inputs": [],
      "outputs": [],
      "stateMutability": "nonpayable"
    },
    {
      "type": "function",
      "name": "rewardValue",
      "inputs": [],
      "outputs": [
        {
          "name": "",
          "type": "uint256",
          "internalType": "uint256"
        }
      ],
      "stateMutability": "view"
    },
    {
      "type": "function",
      "name": "transferOwnership",
      "inputs": [
        {
          "name": "newOwner",
          "type": "address",
          "internalType": "address"
        }
      ],
      "outputs": [],
      "stateMutability": "nonpayable"
    },
    {
      "type": "function",
      "name": "treasury",
      "inputs": [],
      "outputs": [
        {
          "name": "",
          "type": "address",
          "internalType": "address"
        }
      ],
      "stateMutability": "view"
    },
    {
      "type": "event",
      "name": "ContactExchange",
      "inputs": [
        {
          "name": "user",
          "type": "address",
          "indexed": true,
          "internalType": "address"
        },
        {
          "name": "contact",
          "type": "address",
          "indexed": false,
          "internalType": "address"
        },
        {
          "name": "reward",
          "type": "uint256",
          "indexed": false,
          "internalType": "uint256"
        }
      ],
      "anonymous": false
    },
    {
      "type": "event",
      "name": "OwnershipTransferred",
      "inputs": [
        {
          "name": "previousOwner",
          "type": "address",
          "indexed": true,
          "internalType": "address"
        },
        {
          "name": "newOwner",
          "type": "address",
          "indexed": true,
          "internalType": "address"
        }
      ],
      "anonymous": false
    },
    {
      "type": "error",
      "name": "AddressEmptyCode",
      "inputs": [
        {
          "name": "target",
          "type": "address",
          "internalType": "address"
        }
      ]
    },
    {
      "type": "error",
      "name": "AddressInsufficientBalance",
      "inputs": [
        {
          "name": "account",
          "type": "address",
          "internalType": "address"
        }
      ]
    },
    {
      "type": "error",
      "name": "ContactAlreadyExchanged",
      "inputs": []
    },
    {
      "type": "error",
      "name": "FailedInnerCall",
      "inputs": []
    },
    {
      "type": "error",
      "name": "OwnableInvalidOwner",
      "inputs": [
        {
          "name": "owner",
          "type": "address",
          "internalType": "address"
        }
      ]
    },
    {
      "type": "error",
      "name": "OwnableUnauthorizedAccount",
      "inputs": [
        {
          "name": "account",
          "type": "address",
          "internalType": "address"
        }
      ]
    },
    {
      "type": "error",
      "name": "ReentrancyGuardReentrantCall",
      "inputs": []
    },
    {
      "type": "error",
      "name": "SafeERC20FailedOperation",
      "inputs": [
        {
          "name": "token",
          "type": "address",
          "internalType": "address"
        }
      ]
    },
    {
      "type": "error",
      "name": "SameUserError",
      "inputs": []
    }
  ],
  "bytecode": {
    "object": "0x60a060405234801561001057600080fd5b5060405161131d38038061131d833981810160405281019061003291906102e0565b84600073ffffffffffffffffffffffffffffffffffffffff168173ffffffffffffffffffffffffffffffffffffffff16036100a55760006040517f1e4fbdf700000000000000000000000000000000000000000000000000000000815260040161009c919061036a565b60405180910390fd5b6100b48161018360201b60201c565b50600180819055508373ffffffffffffffffffffffffffffffffffffffff1660808173ffffffffffffffffffffffffffffffffffffffff16815250508260048190555081600260006101000a81548173ffffffffffffffffffffffffffffffffffffffff021916908373ffffffffffffffffffffffffffffffffffffffff16021790555080600360006101000a81548173ffffffffffffffffffffffffffffffffffffffff021916908373ffffffffffffffffffffffffffffffffffffffff1602179055505050505050610385565b60008060009054906101000a900473ffffffffffffffffffffffffffffffffffffffff169050816000806101000a81548173ffffffffffffffffffffffffffffffffffffffff021916908373ffffffffffffffffffffffffffffffffffffffff1602179055508173ffffffffffffffffffffffffffffffffffffffff168173ffffffffffffffffffffffffffffffffffffffff167f8be0079c531659141344cd1fd0a4f28419497f9722a3daafe3b4186f6b6457e060405160405180910390a35050565b600080fd5b600073ffffffffffffffffffffffffffffffffffffffff82169050919050565b60006102778261024c565b9050919050565b6102878161026c565b811461029257600080fd5b50565b6000815190506102a48161027e565b92915050565b6000819050919050565b6102bd816102aa565b81146102c857600080fd5b50565b6000815190506102da816102b4565b92915050565b600080600080600060a086880312156102fc576102fb610247565b5b600061030a88828901610295565b955050602061031b88828901610295565b945050604061032c888289016102cb565b935050606061033d88828901610295565b925050608061034e88828901610295565b9150509295509295909350565b6103648161026c565b82525050565b600060208201905061037f600083018461035b565b92915050565b608051610f766103a7600039600081816104a7015261063c0152610f766000f3fe608060405234801561001057600080fd5b506004361061009e5760003560e01c8063715018a611610066578063715018a6146101495780638da5cb5b14610153578063f2fde38b14610171578063f851a4401461018d578063fae128d6146101ab5761009e565b80630f2bdef6146100a357806312c7df73146100c1578063135aa08b146100df5780634d9438e5146100fb57806361d027b31461012b575b600080fd5b6100ab6101c9565b6040516100b89190610aca565b60405180910390f35b6100c96101d3565b6040516100d69190610aca565b60405180910390f35b6100f960048036038101906100f49190610b74565b6101d9565b005b61011560048036038101906101109190610bdb565b610376565b6040516101229190610c23565b60405180910390f35b610133610396565b6040516101409190610c4d565b60405180910390f35b6101516103bc565b005b61015b6103d0565b6040516101689190610c4d565b60405180910390f35b61018b60048036038101906101869190610c68565b6103f9565b005b61019561047f565b6040516101a29190610c4d565b60405180910390f35b6101b36104a5565b6040516101c09190610cf4565b60405180910390f35b6000600454905090565b60045481565b6101e16104c9565b600360009054906101000a900473ffffffffffffffffffffffffffffffffffffffff1673ffffffffffffffffffffffffffffffffffffffff163373ffffffffffffffffffffffffffffffffffffffff1614610271576040517f08c379a000000000000000000000000000000000000000000000000000000000815260040161026890610d92565b60405180910390fd5b600061027d848361050f565b90506005600082815260200190815260200160002060009054906101000a900460ff16156102d7576040517f5a2122d100000000000000000000000000000000000000000000000000000000815260040160405180910390fd5b60016005600083815260200190815260200160002060006101000a81548160ff02191690831515021790555061030c856105ba565b610315836105ba565b8473ffffffffffffffffffffffffffffffffffffffff167ffa1e231376c88f3a17e8fcc76aa11fcc90aeacdab2302878e109bc1fb6fd279f8460045460405161035f929190610db2565b60405180910390a250610370610685565b50505050565b60056020528060005260406000206000915054906101000a900460ff1681565b600260009054906101000a900473ffffffffffffffffffffffffffffffffffffffff1681565b6103c461068e565b6103ce6000610715565b565b60008060009054906101000a900473ffffffffffffffffffffffffffffffffffffffff16905090565b61040161068e565b600073ffffffffffffffffffffffffffffffffffffffff168173ffffffffffffffffffffffffffffffffffffffff16036104735760006040517f1e4fbdf700000000000000000000000000000000000000000000000000000000815260040161046a9190610c4d565b60405180910390fd5b61047c81610715565b50565b600360009054906101000a900473ffffffffffffffffffffffffffffffffffffffff1681565b7f000000000000000000000000000000000000000000000000000000000000000081565b600260015403610505576040517f3ee5aeb500000000000000000000000000000000000000000000000000000000815260040160405180910390fd5b6002600181905550565b600081830361054a576040517f1ce1c12000000000000000000000000000000000000000000000000000000000815260040160405180910390fd5b81831115610585578282604051602001610565929190610dfc565b6040516020818303038152906040528051906020012060001c90506105b4565b8183604051602001610598929190610dfc565b6040516020818303038152906040528051906020012060001c90505b92915050565b600260009054906101000a900473ffffffffffffffffffffffffffffffffffffffff1673ffffffffffffffffffffffffffffffffffffffff168173ffffffffffffffffffffffffffffffffffffffff16031561068257610681600260009054906101000a900473ffffffffffffffffffffffffffffffffffffffff16826004547f000000000000000000000000000000000000000000000000000000000000000073ffffffffffffffffffffffffffffffffffffffff166107d9909392919063ffffffff16565b5b50565b60018081905550565b61069661085b565b73ffffffffffffffffffffffffffffffffffffffff166106b46103d0565b73ffffffffffffffffffffffffffffffffffffffff1614610713576106d761085b565b6040517f118cdaa700000000000000000000000000000000000000000000000000000000815260040161070a9190610c4d565b60405180910390fd5b565b60008060009054906101000a900473ffffffffffffffffffffffffffffffffffffffff169050816000806101000a81548173ffffffffffffffffffffffffffffffffffffffff021916908373ffffffffffffffffffffffffffffffffffffffff1602179055508173ffffffffffffffffffffffffffffffffffffffff168173ffffffffffffffffffffffffffffffffffffffff167f8be0079c531659141344cd1fd0a4f28419497f9722a3daafe3b4186f6b6457e060405160405180910390a35050565b610855848573ffffffffffffffffffffffffffffffffffffffff166323b872dd86868660405160240161080e93929190610e28565b604051602081830303815290604052915060e01b6020820180517bffffffffffffffffffffffffffffffffffffffffffffffffffffffff8381831617835250505050610863565b50505050565b600033905090565b600061088e828473ffffffffffffffffffffffffffffffffffffffff166108fa90919063ffffffff16565b905060008151141580156108b35750808060200190518101906108b19190610e8b565b155b156108f557826040517f5274afe70000000000000000000000000000000000000000000000000000000081526004016108ec9190610c4d565b60405180910390fd5b505050565b606061090883836000610910565b905092915050565b60608147101561095757306040517fcd78605900000000000000000000000000000000000000000000000000000000815260040161094e9190610c4d565b60405180910390fd5b6000808573ffffffffffffffffffffffffffffffffffffffff1684866040516109809190610f29565b60006040518083038185875af1925050503d80600081146109bd576040519150601f19603f3d011682016040523d82523d6000602084013e6109c2565b606091505b50915091506109d28683836109dd565b925050509392505050565b6060826109f2576109ed82610a6c565b610a64565b60008251148015610a1a575060008473ffffffffffffffffffffffffffffffffffffffff163b145b15610a5c57836040517f9996b315000000000000000000000000000000000000000000000000000000008152600401610a539190610c4d565b60405180910390fd5b819050610a65565b5b9392505050565b600081511115610a7f5780518082602001fd5b6040517f1425ea4200000000000000000000000000000000000000000000000000000000815260040160405180910390fd5b6000819050919050565b610ac481610ab1565b82525050565b6000602082019050610adf6000830184610abb565b92915050565b600080fd5b600073ffffffffffffffffffffffffffffffffffffffff82169050919050565b6000610b1582610aea565b9050919050565b610b2581610b0a565b8114610b3057600080fd5b50565b600081359050610b4281610b1c565b92915050565b610b5181610ab1565b8114610b5c57600080fd5b50565b600081359050610b6e81610b48565b92915050565b60008060008060808587031215610b8e57610b8d610ae5565b5b6000610b9c87828801610b33565b9450506020610bad87828801610b5f565b9350506040610bbe87828801610b33565b9250506060610bcf87828801610b5f565b91505092959194509250565b600060208284031215610bf157610bf0610ae5565b5b6000610bff84828501610b5f565b91505092915050565b60008115159050919050565b610c1d81610c08565b82525050565b6000602082019050610c386000830184610c14565b92915050565b610c4781610b0a565b82525050565b6000602082019050610c626000830184610c3e565b92915050565b600060208284031215610c7e57610c7d610ae5565b5b6000610c8c84828501610b33565b91505092915050565b6000819050919050565b6000610cba610cb5610cb084610aea565b610c95565b610aea565b9050919050565b6000610ccc82610c9f565b9050919050565b6000610cde82610cc1565b9050919050565b610cee81610cd3565b82525050565b6000602082019050610d096000830184610ce5565b92915050565b600082825260208201905092915050565b7f4f6e6c792061646d696e2063616e2063616c6c20746869732066756e6374696f60008201527f6e00000000000000000000000000000000000000000000000000000000000000602082015250565b6000610d7c602183610d0f565b9150610d8782610d20565b604082019050919050565b60006020820190508181036000830152610dab81610d6f565b9050919050565b6000604082019050610dc76000830185610c3e565b610dd46020830184610abb565b9392505050565b6000819050919050565b610df6610df182610ab1565b610ddb565b82525050565b6000610e088285610de5565b602082019150610e188284610de5565b6020820191508190509392505050565b6000606082019050610e3d6000830186610c3e565b610e4a6020830185610c3e565b610e576040830184610abb565b949350505050565b610e6881610c08565b8114610e7357600080fd5b50565b600081519050610e8581610e5f565b92915050565b600060208284031215610ea157610ea0610ae5565b5b6000610eaf84828501610e76565b91505092915050565b600081519050919050565b600081905092915050565b60005b83811015610eec578082015181840152602081019050610ed1565b60008484015250505050565b6000610f0382610eb8565b610f0d8185610ec3565b9350610f1d818560208601610ece565b80840191505092915050565b6000610f358284610ef8565b91508190509291505056fea264697066735822122031ac4f692e51e60a6e893c7336dd2e6de84f4ccae0c28a03febc3e3d46b80dab64736f6c63430008190033",
    "linkReferences": {}
  },
  "methodIdentifiers": {
    "admin()": "f851a440",
    "contactExchange(uint256)": "4d9438e5",
    "exchangeContact(address,uint256,address,uint256)": "135aa08b",
    "getRewardValue()": "0f2bdef6",
    "i_blueToken()": "fae128d6",
    "owner()": "8da5cb5b",
    "renounceOwnership()": "715018a6",
    "rewardValue()": "12c7df73",
    "transferOwnership(address)": "f2fde38b",
    "treasury()": "61d027b3"
  },
  "id": 44
}