{
  "abi": [
    {
      "type": "constructor",
      "inputs": [
        {
          "name": "initialOwner",
          "type": "address",
          "internalType": "address"
        },
        {
          "name": "_baseRewardRate",
          "type": "uint256",
          "internalType": "uint256"
        },
        {
          "name": "_minReward",
          "type": "uint256",
          "internalType": "uint256"
        },
        {
          "name": "_iceBreakerFee",
          "type": "uint256",
          "internalType": "uint256"
        },
        {
          "name": "_minimumRewardInterval",
          "type": "uint256",
          "internalType": "uint256"
        },
        {
          "name": "_blueToken",
          "type": "address",
          "internalType": "address"
        },
        {
          "name": "_treasury",
          "type": "address",
          "internalType": "address"
        },
        {
          "name": "_admin",
          "type": "address",
          "internalType": "address"
        },
        {
          "name": "_timeWeight",
          "type": "uint256",
          "internalType": "uint256"
        },
        {
          "name": "_interactionCountWeight",
          "type": "uint256",
          "internalType": "uint256"
        }
      ],
      "stateMutability": "nonpayable"
    },
    {
      "type": "function",
      "name": "baseRewardRate",
      "inputs": [],
      "outputs": [
        {
          "name": "",
          "type": "uint256",
          "internalType": "uint256"
        }
      ],
      "stateMutability": "view"
    },
    {
      "type": "function",
      "name": "calculateRewards",
      "inputs": [
        {
          "name": "_hashedUserIds",
          "type": "uint256",
          "internalType": "uint256"
        }
      ],
      "outputs": [
        {
          "name": "",
          "type": "uint256",
          "internalType": "uint256"
        }
      ],
      "stateMutability": "view"
    },
    {
      "type": "function",
      "name": "getAdminAddress",
      "inputs": [],
      "outputs": [
        {
          "name": "",
          "type": "address",
          "internalType": "address"
        }
      ],
      "stateMutability": "view"
    },
    {
      "type": "function",
      "name": "getBaseRewardRate",
      "inputs": [],
      "outputs": [
        {
          "name": "",
          "type": "uint256",
          "internalType": "uint256"
        }
      ],
      "stateMutability": "view"
    },
    {
      "type": "function",
      "name": "getIceBreakerFee",
      "inputs": [],
      "outputs": [
        {
          "name": "",
          "type": "uint256",
          "internalType": "uint256"
        }
      ],
      "stateMutability": "view"
    },
    {
      "type": "function",
      "name": "getInteractionCount",
      "inputs": [
        {
          "name": "_userA",
          "type": "uint256",
          "internalType": "uint256"
        },
        {
          "name": "_userB",
          "type": "uint256",
          "internalType": "uint256"
        }
      ],
      "outputs": [
        {
          "name": "",
          "type": "uint256",
          "internalType": "uint256"
        }
      ],
      "stateMutability": "view"
    },
    {
      "type": "function",
      "name": "getLastRewardTime",
      "inputs": [
        {
          "name": "_userA",
          "type": "uint256",
          "internalType": "uint256"
        },
        {
          "name": "_userB",
          "type": "uint256",
          "internalType": "uint256"
        }
      ],
      "outputs": [
        {
          "name": "",
          "type": "uint256",
          "internalType": "uint256"
        }
      ],
      "stateMutability": "view"
    },
    {
      "type": "function",
      "name": "getMinReward",
      "inputs": [],
      "outputs": [
        {
          "name": "",
          "type": "uint256",
          "internalType": "uint256"
        }
      ],
      "stateMutability": "view"
    },
    {
      "type": "function",
      "name": "getMinimumRewardInterval",
      "inputs": [],
      "outputs": [
        {
          "name": "",
          "type": "uint256",
          "internalType": "uint256"
        }
      ],
      "stateMutability": "view"
    },
    {
      "type": "function",
      "name": "iceBreakerFee",
      "inputs": [],
      "outputs": [
        {
          "name": "",
          "type": "uint256",
          "internalType": "uint256"
        }
      ],
      "stateMutability": "view"
    },
    {
      "type": "function",
      "name": "minReward",
      "inputs": [],
      "outputs": [
        {
          "name": "",
          "type": "uint256",
          "internalType": "uint256"
        }
      ],
      "stateMutability": "view"
    },
    {
      "type": "function",
      "name": "minimumRewardInterval",
      "inputs": [],
      "outputs": [
        {
          "name": "",
          "type": "uint256",
          "internalType": "uint256"
        }
      ],
      "stateMutability": "view"
    },
    {
      "type": "function",
      "name": "owner",
      "inputs": [],
      "outputs": [
        {
          "name": "",
          "type": "address",
          "internalType": "address"
        }
      ],
      "stateMutability": "view"
    },
    {
      "type": "function",
      "name": "renounceOwnership",
      "inputs": [],
      "outputs": [],
      "stateMutability": "nonpayable"
    },
    {
      "type": "function",
      "name": "rewardUsers",
      "inputs": [
        {
          "name": "_senderAddress",
          "type": "address",
          "internalType": "address"
        },
        {
          "name": "_senderId",
          "type": "uint256",
          "internalType": "uint256"
        },
        {
          "name": "_receiverAddress",
          "type": "address",
          "internalType": "address"
        },
        {
          "name": "_receiverId",
          "type": "uint256",
          "internalType": "uint256"
        },
        {
          "name": "_timestamp",
          "type": "uint256",
          "internalType": "uint256"
        }
      ],
      "outputs": [],
      "stateMutability": "nonpayable"
    },
    {
      "type": "function",
      "name": "sendIceBreaker",
      "inputs": [
        {
          "name": "_invitee",
          "type": "address",
          "internalType": "address"
        }
      ],
      "outputs": [],
      "stateMutability": "nonpayable"
    },
    {
      "type": "function",
      "name": "setAdmin",
      "inputs": [
        {
          "name": "_admin",
          "type": "address",
          "internalType": "address"
        }
      ],
      "outputs": [],
      "stateMutability": "nonpayable"
    },
    {
      "type": "function",
      "name": "setBaseRewardRate",
      "inputs": [
        {
          "name": "_baseRewardRate",
          "type": "uint256",
          "internalType": "uint256"
        }
      ],
      "outputs": [],
      "stateMutability": "nonpayable"
    },
    {
      "type": "function",
      "name": "setIceBreakerFee",
      "inputs": [
        {
          "name": "_iceBreakerFee",
          "type": "uint256",
          "internalType": "uint256"
        }
      ],
      "outputs": [],
      "stateMutability": "nonpayable"
    },
    {
      "type": "function",
      "name": "setInteractionCountWeight",
      "inputs": [
        {
          "name": "_interactionCountWeight",
          "type": "uint256",
          "internalType": "uint256"
        }
      ],
      "outputs": [],
      "stateMutability": "nonpayable"
    },
    {
      "type": "function",
      "name": "setMinReward",
      "inputs": [
        {
          "name": "_minReward",
          "type": "uint256",
          "internalType": "uint256"
        }
      ],
      "outputs": [],
      "stateMutability": "nonpayable"
    },
    {
      "type": "function",
      "name": "setMinimumRewardInterval",
      "inputs": [
        {
          "name": "_minimumRewardInterval",
          "type": "uint256",
          "internalType": "uint256"
        }
      ],
      "outputs": [],
      "stateMutability": "nonpayable"
    },
    {
      "type": "function",
      "name": "setTimeWeight",
      "inputs": [
        {
          "name": "_timeWeight",
          "type": "uint256",
          "internalType": "uint256"
        }
      ],
      "outputs": [],
      "stateMutability": "nonpayable"
    },
    {
      "type": "function",
      "name": "setTreasury",
      "inputs": [
        {
          "name": "_treasury",
          "type": "address",
          "internalType": "address"
        }
      ],
      "outputs": [],
      "stateMutability": "nonpayable"
    },
    {
      "type": "function",
      "name": "tipUser",
      "inputs": [
        {
          "name": "_user",
          "type": "address",
          "internalType": "address"
        },
        {
          "name": "_amount",
          "type": "uint256",
          "internalType": "uint256"
        }
      ],
      "outputs": [],
      "stateMutability": "nonpayable"
    },
    {
      "type": "function",
      "name": "transferOwnership",
      "inputs": [
        {
          "name": "newOwner",
          "type": "address",
          "internalType": "address"
        }
      ],
      "outputs": [],
      "stateMutability": "nonpayable"
    },
    {
      "type": "function",
      "name": "userInteractions",
      "inputs": [
        {
          "name": "hashedUserIds",
          "type": "uint256",
          "internalType": "uint256"
        }
      ],
      "outputs": [
        {
          "name": "interactionCount",
          "type": "uint128",
          "internalType": "uint128"
        },
        {
          "name": "lastRewardTime",
          "type": "uint128",
          "internalType": "uint128"
        }
      ],
      "stateMutability": "view"
    },
    {
      "type": "function",
      "name": "withdraw",
      "inputs": [],
      "outputs": [],
      "stateMutability": "nonpayable"
    },
    {
      "type": "event",
      "name": "BalanceWithdrawn",
      "inputs": [
        {
          "name": "owner",
          "type": "address",
          "indexed": true,
          "internalType": "address"
        },
        {
          "name": "amount",
          "type": "uint256",
          "indexed": false,
          "internalType": "uint256"
        }
      ],
      "anonymous": false
    },
    {
      "type": "event",
      "name": "IceBreakerSent",
      "inputs": [
        {
          "name": "user",
          "type": "address",
          "indexed": true,
          "internalType": "address"
        },
        {
          "name": "invitee",
          "type": "address",
          "indexed": true,
          "internalType": "address"
        }
      ],
      "anonymous": false
    },
    {
      "type": "event",
      "name": "OwnershipTransferred",
      "inputs": [
        {
          "name": "previousOwner",
          "type": "address",
          "indexed": true,
          "internalType": "address"
        },
        {
          "name": "newOwner",
          "type": "address",
          "indexed": true,
          "internalType": "address"
        }
      ],
      "anonymous": false
    },
    {
      "type": "event",
      "name": "RewardUser",
      "inputs": [
        {
          "name": "user",
          "type": "address",
          "indexed": true,
          "internalType": "address"
        },
        {
          "name": "reward",
          "type": "uint256",
          "indexed": false,
          "internalType": "uint256"
        }
      ],
      "anonymous": false
    },
    {
      "type": "event",
      "name": "TipSent",
      "inputs": [
        {
          "name": "sender",
          "type": "address",
          "indexed": true,
          "internalType": "address"
        },
        {
          "name": "receiver",
          "type": "address",
          "indexed": true,
          "internalType": "address"
        },
        {
          "name": "amount",
          "type": "uint256",
          "indexed": false,
          "internalType": "uint256"
        }
      ],
      "anonymous": false
    },
    {
      "type": "error",
      "name": "AddressEmptyCode",
      "inputs": [
        {
          "name": "target",
          "type": "address",
          "internalType": "address"
        }
      ]
    },
    {
      "type": "error",
      "name": "AddressInsufficientBalance",
      "inputs": [
        {
          "name": "account",
          "type": "address",
          "internalType": "address"
        }
      ]
    },
    {
      "type": "error",
      "name": "FailedInnerCall",
      "inputs": []
    },
    {
      "type": "error",
      "name": "IceBreakerFeeError",
      "inputs": []
    },
    {
      "type": "error",
      "name": "InteractionError",
      "inputs": []
    },
    {
      "type": "error",
      "name": "OnlyAdminError",
      "inputs": []
    },
    {
      "type": "error",
      "name": "OwnableInvalidOwner",
      "inputs": [
        {
          "name": "owner",
          "type": "address",
          "internalType": "address"
        }
      ]
    },
    {
      "type": "error",
      "name": "OwnableUnauthorizedAccount",
      "inputs": [
        {
          "name": "account",
          "type": "address",
          "internalType": "address"
        }
      ]
    },
    {
      "type": "error",
      "name": "ReentrancyGuardReentrantCall",
      "inputs": []
    },
    {
      "type": "error",
      "name": "RewardIntervalError",
      "inputs": []
    },
    {
      "type": "error",
      "name": "RewardTransferFailedError",
      "inputs": []
    },
    {
      "type": "error",
      "name": "SafeERC20FailedOperation",
      "inputs": [
        {
          "name": "token",
          "type": "address",
          "internalType": "address"
        }
      ]
    },
    {
      "type": "error",
      "name": "TipUserError",
      "inputs": []
    },
    {
      "type": "error",
      "name": "WithdrawalError",
      "inputs": []
    }
  ],
  "bytecode": {
    "object": "0x60a060405234801561001057600080fd5b5060405161224638038061224683398181016040528101906100329190610308565b89600073ffffffffffffffffffffffffffffffffffffffff168173ffffffffffffffffffffffffffffffffffffffff16036100a55760006040517f1e4fbdf700000000000000000000000000000000000000000000000000000000815260040161009c91906103f6565b60405180910390fd5b6100b4816101ab60201b60201c565b5060018081905550866008819055508860068190555087600781905550856009819055508473ffffffffffffffffffffffffffffffffffffffff1660808173ffffffffffffffffffffffffffffffffffffffff168152505083600260006101000a81548173ffffffffffffffffffffffffffffffffffffffff021916908373ffffffffffffffffffffffffffffffffffffffff16021790555082600360006101000a81548173ffffffffffffffffffffffffffffffffffffffff021916908373ffffffffffffffffffffffffffffffffffffffff160217905550816004819055508060058190555050505050505050505050610411565b60008060009054906101000a900473ffffffffffffffffffffffffffffffffffffffff169050816000806101000a81548173ffffffffffffffffffffffffffffffffffffffff021916908373ffffffffffffffffffffffffffffffffffffffff1602179055508173ffffffffffffffffffffffffffffffffffffffff168173ffffffffffffffffffffffffffffffffffffffff167f8be0079c531659141344cd1fd0a4f28419497f9722a3daafe3b4186f6b6457e060405160405180910390a35050565b600080fd5b600073ffffffffffffffffffffffffffffffffffffffff82169050919050565b600061029f82610274565b9050919050565b6102af81610294565b81146102ba57600080fd5b50565b6000815190506102cc816102a6565b92915050565b6000819050919050565b6102e5816102d2565b81146102f057600080fd5b50565b600081519050610302816102dc565b92915050565b6000806000806000806000806000806101408b8d03121561032c5761032b61026f565b5b600061033a8d828e016102bd565b9a5050602061034b8d828e016102f3565b995050604061035c8d828e016102f3565b985050606061036d8d828e016102f3565b975050608061037e8d828e016102f3565b96505060a061038f8d828e016102bd565b95505060c06103a08d828e016102bd565b94505060e06103b18d828e016102bd565b9350506101006103c38d828e016102f3565b9250506101206103d58d828e016102f3565b9150509295989b9194979a5092959850565b6103f081610294565b82525050565b600060208201905061040b60008301846103e7565b92915050565b608051611e0c61043a60003960008181610556015281816107b701526111ce0152611e0c6000f3fe608060405234801561001057600080fd5b50600436106101c45760003560e01c8063906345c1116100f9578063ba16d60011610097578063d3ea435011610071578063d3ea435014610496578063f0a9abe7146104c6578063f0f44260146104e2578063f2fde38b146104fe576101c4565b8063ba16d6001461043e578063c47a3b621461045c578063d08561a31461047a576101c4565b8063afbf3440116100d3578063afbf3440146103c8578063b2e6b912146103e6578063b4f53e9d14610404578063b6a1cb2b14610422576101c4565b8063906345c11461035e57806394939a9f1461037a578063aa5ca522146103aa576101c4565b8063531fee6f11610166578063704b6c0211610140578063704b6c02146102fe578063715018a61461031a57806378267e62146103245780638da5cb5b14610340576101c4565b8063531fee6f146102955780635bcac660146102b1578063688fa162146102e2576101c4565b80632efe308b116101a25780632efe308b14610221578063332d03251461023f5780633ccfd60b1461025b57806351a591d214610265576101c4565b8063023db643146101c957806315688ecf146101e55780632632930114610203575b600080fd5b6101e360048036038101906101de9190611694565b61051a565b005b6101ed61052c565b6040516101fa91906116d0565b60405180910390f35b61020b610532565b60405161021891906116d0565b60405180910390f35b61022961053c565b60405161023691906116d0565b60405180910390f35b61025960048036038101906102549190611749565b610546565b005b61026361060c565b005b61027f600480360381019061027a9190611789565b61072b565b60405161028c91906116d0565b60405180910390f35b6102af60048036038101906102aa91906117c9565b610783565b005b6102cb60048036038101906102c69190611694565b610861565b6040516102d9929190611821565b60405180910390f35b6102fc60048036038101906102f79190611694565b6108bd565b005b610318600480360381019061031391906117c9565b6108cf565b005b61032261091b565b005b61033e6004803603810190610339919061184a565b61092f565b005b610348610b42565b60405161035591906118d4565b60405180910390f35b61037860048036038101906103739190611694565b610b6b565b005b610394600480360381019061038f9190611789565b610b7d565b6040516103a191906116d0565b60405180910390f35b6103b2610bd5565b6040516103bf91906116d0565b60405180910390f35b6103d0610bdf565b6040516103dd91906116d0565b60405180910390f35b6103ee610be5565b6040516103fb91906118d4565b60405180910390f35b61040c610c0f565b60405161041991906116d0565b60405180910390f35b61043c60048036038101906104379190611694565b610c19565b005b610446610c2b565b60405161045391906116d0565b60405180910390f35b610464610c31565b60405161047191906116d0565b60405180910390f35b610494600480360381019061048f9190611694565b610c37565b005b6104b060048036038101906104ab9190611694565b610c49565b6040516104bd91906116d0565b60405180910390f35b6104e060048036038101906104db9190611694565b610dd2565b005b6104fc60048036038101906104f791906117c9565b610de4565b005b610518600480360381019061051391906117c9565b610e30565b005b610522610eb6565b8060048190555050565b60085481565b6000600754905090565b6000600854905090565b61054e610f3d565b61059b3383837f000000000000000000000000000000000000000000000000000000000000000073ffffffffffffffffffffffffffffffffffffffff16610f83909392919063ffffffff16565b8173ffffffffffffffffffffffffffffffffffffffff163373ffffffffffffffffffffffffffffffffffffffff167f944676cc66b56faa2e31ce8f94f620789dda8488308d59491fabc492867d4cec836040516105f891906116d0565b60405180910390a3610608611005565b5050565b610614610f3d565b61061c610eb6565b6000479050600061062b610b42565b905060008173ffffffffffffffffffffffffffffffffffffffff168360405161065390611946565b60006040518083038185875af1925050503d8060008114610690576040519150601f19603f3d011682016040523d82523d6000602084013e610695565b606091505b50509050806106d0576040517f9e0eb9f500000000000000000000000000000000000000000000000000000000815260040160405180910390fd5b8173ffffffffffffffffffffffffffffffffffffffff167fddc398b321237a8d40ac914388309c2f52a08c134e4dc4ce61e32f57cb7d80f18460405161071691906116d0565b60405180910390a2505050610729611005565b565b6000600a600061073b858561100e565b815260200190815260200160002060000160109054906101000a90046fffffffffffffffffffffffffffffffff166fffffffffffffffffffffffffffffffff16905092915050565b61078b610f3d565b6107fc33600260009054906101000a900473ffffffffffffffffffffffffffffffffffffffff166008547f000000000000000000000000000000000000000000000000000000000000000073ffffffffffffffffffffffffffffffffffffffff16610f83909392919063ffffffff16565b8073ffffffffffffffffffffffffffffffffffffffff163373ffffffffffffffffffffffffffffffffffffffff167f182311f5066704b409cd3a8de29236e93d3e89bebad6dbf65612089c144eae1360405160405180910390a361085e611005565b50565b600a6020528060005260406000206000915090508060000160009054906101000a90046fffffffffffffffffffffffffffffffff16908060000160109054906101000a90046fffffffffffffffffffffffffffffffff16905082565b6108c5610eb6565b8060098190555050565b6108d7610eb6565b80600360006101000a81548173ffffffffffffffffffffffffffffffffffffffff021916908373ffffffffffffffffffffffffffffffffffffffff16021790555050565b610923610eb6565b61092d6000611064565b565b610937610f3d565b600360009054906101000a900473ffffffffffffffffffffffffffffffffffffffff1673ffffffffffffffffffffffffffffffffffffffff163373ffffffffffffffffffffffffffffffffffffffff16146109be576040517f310dd4fa00000000000000000000000000000000000000000000000000000000815260040160405180910390fd5b838260006109cc838361100e565b9050600954600a600083815260200190815260200160002060000160109054906101000a90046fffffffffffffffffffffffffffffffff166fffffffffffffffffffffffffffffffff1642610a21919061198a565b108015610a7257506000600a600083815260200190815260200160002060000160009054906101000a90046fffffffffffffffffffffffffffffffff166fffffffffffffffffffffffffffffffff16115b15610aa9576040517f90ce710500000000000000000000000000000000000000000000000000000000815260040160405180910390fd5b6000610ab5888761100e565b90506000610ac282610c49565b905085600a600084815260200190815260200160002060000160106101000a8154816fffffffffffffffffffffffffffffffff02191690836fffffffffffffffffffffffffffffffff160217905550610b1a82611128565b610b248a826111a4565b610b2e88826111a4565b5050505050610b3b611005565b5050505050565b60008060009054906101000a900473ffffffffffffffffffffffffffffffffffffffff16905090565b610b73610eb6565b8060088190555050565b6000600a6000610b8d858561100e565b815260200190815260200160002060000160009054906101000a90046fffffffffffffffffffffffffffffffff166fffffffffffffffffffffffffffffffff16905092915050565b6000600954905090565b60065481565b6000600360009054906101000a900473ffffffffffffffffffffffffffffffffffffffff16905090565b6000600654905090565b610c21610eb6565b8060078190555050565b60075481565b60095481565b610c3f610eb6565b8060058190555050565b600080600a60008481526020019081526020016000206040518060400160405290816000820160009054906101000a90046fffffffffffffffffffffffffffffffff166fffffffffffffffffffffffffffffffff166fffffffffffffffffffffffffffffffff1681526020016000820160109054906101000a90046fffffffffffffffffffffffffffffffff166fffffffffffffffffffffffffffffffff166fffffffffffffffffffffffffffffffff16815250509050600081600001516fffffffffffffffffffffffffffffffff16905060006201518083602001516fffffffffffffffffffffffffffffffff1642610d43919061198a565b610d4d91906119ed565b905060008060008403610d695760065490506006549150610d80565b610d7284611265565b9150610d7d836112d0565b90505b6000606460045483610d929190611a1e565b60055485610da09190611a1e565b610daa9190611a60565b610db491906119ed565b90506000610dc182611320565b905080975050505050505050919050565b610dda610eb6565b8060068190555050565b610dec610eb6565b80600260006101000a81548173ffffffffffffffffffffffffffffffffffffffff021916908373ffffffffffffffffffffffffffffffffffffffff16021790555050565b610e38610eb6565b600073ffffffffffffffffffffffffffffffffffffffff168173ffffffffffffffffffffffffffffffffffffffff1603610eaa5760006040517f1e4fbdf7000000000000000000000000000000000000000000000000000000008152600401610ea191906118d4565b60405180910390fd5b610eb381611064565b50565b610ebe611403565b73ffffffffffffffffffffffffffffffffffffffff16610edc610b42565b73ffffffffffffffffffffffffffffffffffffffff1614610f3b57610eff611403565b6040517f118cdaa7000000000000000000000000000000000000000000000000000000008152600401610f3291906118d4565b60405180910390fd5b565b600260015403610f79576040517f3ee5aeb500000000000000000000000000000000000000000000000000000000815260040160405180910390fd5b6002600181905550565b610fff848573ffffffffffffffffffffffffffffffffffffffff166323b872dd868686604051602401610fb893929190611a94565b604051602081830303815290604052915060e01b6020820180517bffffffffffffffffffffffffffffffffffffffffffffffffffffffff838183161783525050505061140b565b50505050565b60018081905550565b6000806000838510611021578385611024565b84845b915091506000828260405160200161103d929190611aec565b6040516020818303038152906040528051906020012060001c905080935050505092915050565b60008060009054906101000a900473ffffffffffffffffffffffffffffffffffffffff169050816000806101000a81548173ffffffffffffffffffffffffffffffffffffffff021916908373ffffffffffffffffffffffffffffffffffffffff1602179055508173ffffffffffffffffffffffffffffffffffffffff168173ffffffffffffffffffffffffffffffffffffffff167f8be0079c531659141344cd1fd0a4f28419497f9722a3daafe3b4186f6b6457e060405160405180910390a35050565b600a6000828152602001908152602001600020600001600081819054906101000a90046fffffffffffffffffffffffffffffffff168092919061116a90611b18565b91906101000a8154816fffffffffffffffffffffffffffffffff02191690836fffffffffffffffffffffffffffffffff1602179055505050565b611213600260009054906101000a900473ffffffffffffffffffffffffffffffffffffffff1683837f000000000000000000000000000000000000000000000000000000000000000073ffffffffffffffffffffffffffffffffffffffff16610f83909392919063ffffffff16565b8173ffffffffffffffffffffffffffffffffffffffff167f1b0f90c0b73ff53b6214d863ca6ef1fc552d7fd947567f98af9ad119439b96458260405161125991906116d0565b60405180910390a25050565b6000603282106112795760075490506112cb565b6000603260095460065461128d919061198a565b846112989190611a1e565b6112a291906119ed565b6006546112af919061198a565b90506007548110156112c6576007549150506112cb565b809150505b919050565b6000601c82106112e457600654905061131b565b601c6007546006546112f6919061198a565b836113019190611a1e565b61130b91906119ed565b6007546113189190611a60565b90505b919050565b60008060284244604051602001611338929190611aec565b6040516020818303038152906040528051906020012060001c61135b9190611b50565b9050600060148261136c9190611b8b565b905060006064858361137e9190611bce565b6113889190611c46565b856113939190611cb0565b9050600754811280156113a857506000600754115b156113cd57670de0b6b3a76400006007546113c3919061198a565b93505050506113fe565b6006548113156113f7576729a2241af62c00006006546113ed9190611a60565b93505050506113fe565b8093505050505b919050565b600033905090565b6000611436828473ffffffffffffffffffffffffffffffffffffffff166114a290919063ffffffff16565b9050600081511415801561145b5750808060200190518101906114599190611d2c565b155b1561149d57826040517f5274afe700000000000000000000000000000000000000000000000000000000815260040161149491906118d4565b60405180910390fd5b505050565b60606114b0838360006114b8565b905092915050565b6060814710156114ff57306040517fcd7860590000000000000000000000000000000000000000000000000000000081526004016114f691906118d4565b60405180910390fd5b6000808573ffffffffffffffffffffffffffffffffffffffff1684866040516115289190611dbf565b60006040518083038185875af1925050503d8060008114611565576040519150601f19603f3d011682016040523d82523d6000602084013e61156a565b606091505b509150915061157a868383611585565b925050509392505050565b60608261159a5761159582611614565b61160c565b600082511480156115c2575060008473ffffffffffffffffffffffffffffffffffffffff163b145b1561160457836040517f9996b3150000000000000000000000000000000000000000000000000000000081526004016115fb91906118d4565b60405180910390fd5b81905061160d565b5b9392505050565b6000815111156116275780518082602001fd5b6040517f1425ea4200000000000000000000000000000000000000000000000000000000815260040160405180910390fd5b600080fd5b6000819050919050565b6116718161165e565b811461167c57600080fd5b50565b60008135905061168e81611668565b92915050565b6000602082840312156116aa576116a9611659565b5b60006116b88482850161167f565b91505092915050565b6116ca8161165e565b82525050565b60006020820190506116e560008301846116c1565b92915050565b600073ffffffffffffffffffffffffffffffffffffffff82169050919050565b6000611716826116eb565b9050919050565b6117268161170b565b811461173157600080fd5b50565b6000813590506117438161171d565b92915050565b600080604083850312156117605761175f611659565b5b600061176e85828601611734565b925050602061177f8582860161167f565b9150509250929050565b600080604083850312156117a05761179f611659565b5b60006117ae8582860161167f565b92505060206117bf8582860161167f565b9150509250929050565b6000602082840312156117df576117de611659565b5b60006117ed84828501611734565b91505092915050565b60006fffffffffffffffffffffffffffffffff82169050919050565b61181b816117f6565b82525050565b60006040820190506118366000830185611812565b6118436020830184611812565b9392505050565b600080600080600060a0868803121561186657611865611659565b5b600061187488828901611734565b95505060206118858882890161167f565b945050604061189688828901611734565b93505060606118a78882890161167f565b92505060806118b88882890161167f565b9150509295509295909350565b6118ce8161170b565b82525050565b60006020820190506118e960008301846118c5565b92915050565b600081905092915050565b7f3078000000000000000000000000000000000000000000000000000000000000600082015250565b60006119306002836118ef565b915061193b826118fa565b600282019050919050565b600061195182611923565b9150819050919050565b7f4e487b7100000000000000000000000000000000000000000000000000000000600052601160045260246000fd5b60006119958261165e565b91506119a08361165e565b92508282039050818111156119b8576119b761195b565b5b92915050565b7f4e487b7100000000000000000000000000000000000000000000000000000000600052601260045260246000fd5b60006119f88261165e565b9150611a038361165e565b925082611a1357611a126119be565b5b828204905092915050565b6000611a298261165e565b9150611a348361165e565b9250828202611a428161165e565b91508282048414831517611a5957611a5861195b565b5b5092915050565b6000611a6b8261165e565b9150611a768361165e565b9250828201905080821115611a8e57611a8d61195b565b5b92915050565b6000606082019050611aa960008301866118c5565b611ab660208301856118c5565b611ac360408301846116c1565b949350505050565b6000819050919050565b611ae6611ae18261165e565b611acb565b82525050565b6000611af88285611ad5565b602082019150611b088284611ad5565b6020820191508190509392505050565b6000611b23826117f6565b91506fffffffffffffffffffffffffffffffff8203611b4557611b4461195b565b5b600182019050919050565b6000611b5b8261165e565b9150611b668361165e565b925082611b7657611b756119be565b5b828206905092915050565b6000819050919050565b6000611b9682611b81565b9150611ba183611b81565b9250828203905081811260008412168282136000851215161715611bc857611bc761195b565b5b92915050565b6000611bd982611b81565b9150611be483611b81565b9250828202611bf281611b81565b91507f80000000000000000000000000000000000000000000000000000000000000008414600084121615611c2a57611c2961195b565b5b8282058414831517611c3f57611c3e61195b565b5b5092915050565b6000611c5182611b81565b9150611c5c83611b81565b925082611c6c57611c6b6119be565b5b600160000383147f800000000000000000000000000000000000000000000000000000000000000083141615611ca557611ca461195b565b5b828205905092915050565b6000611cbb82611b81565b9150611cc683611b81565b925082820190508281121560008312168382126000841215161715611cee57611ced61195b565b5b92915050565b60008115159050919050565b611d0981611cf4565b8114611d1457600080fd5b50565b600081519050611d2681611d00565b92915050565b600060208284031215611d4257611d41611659565b5b6000611d5084828501611d17565b91505092915050565b600081519050919050565b60005b83811015611d82578082015181840152602081019050611d67565b60008484015250505050565b6000611d9982611d59565b611da381856118ef565b9350611db3818560208601611d64565b80840191505092915050565b6000611dcb8284611d8e565b91508190509291505056fea26469706673582212200c89b7a88408e8a6e67007a4e07fbb9957b505886313cbc111263d770a6903d164736f6c63430008190033",
    "linkReferences": {}
  },
  "methodIdentifiers": {
    "baseRewardRate()": "afbf3440",
    "calculateRewards(uint256)": "d3ea4350",
    "getAdminAddress()": "b2e6b912",
    "getBaseRewardRate()": "b4f53e9d",
    "getIceBreakerFee()": "2efe308b",
    "getInteractionCount(uint256,uint256)": "94939a9f",
    "getLastRewardTime(uint256,uint256)": "51a591d2",
    "getMinReward()": "26329301",
    "getMinimumRewardInterval()": "aa5ca522",
    "iceBreakerFee()": "15688ecf",
    "minReward()": "ba16d600",
    "minimumRewardInterval()": "c47a3b62",
    "owner()": "8da5cb5b",
    "renounceOwnership()": "715018a6",
    "rewardUsers(address,uint256,address,uint256,uint256)": "78267e62",
    "sendIceBreaker(address)": "531fee6f",
    "setAdmin(address)": "704b6c02",
    "setBaseRewardRate(uint256)": "f0a9abe7",
    "setIceBreakerFee(uint256)": "906345c1",
    "setInteractionCountWeight(uint256)": "d08561a3",
    "setMinReward(uint256)": "b6a1cb2b",
    "setMinimumRewardInterval(uint256)": "688fa162",
    "setTimeWeight(uint256)": "023db643",
    "setTreasury(address)": "f0f44260",
    "tipUser(address,uint256)": "332d0325",
    "transferOwnership(address)": "f2fde38b",
    "userInteractions(uint256)": "5bcac660",
    "withdraw()": "3ccfd60b"
  },
  "id": 45
}