{
  "abi": [
    {
      "type": "constructor",
      "inputs": [
        {
          "name": "initialOwner",
          "type": "address",
          "internalType": "address"
        },
        {
          "name": "_baseRewardRate",
          "type": "uint256",
          "internalType": "uint256"
        },
        {
          "name": "_minReward",
          "type": "uint256",
          "internalType": "uint256"
        },
        {
          "name": "_iceBreakerFee",
          "type": "uint256",
          "internalType": "uint256"
        },
        {
          "name": "_minimumRewardInterval",
          "type": "uint256",
          "internalType": "uint256"
        },
        {
          "name": "_blueToken",
          "type": "address",
          "internalType": "address"
        },
        {
          "name": "_treasury",
          "type": "address",
          "internalType": "address"
        },
        {
          "name": "_admin",
          "type": "address",
          "internalType": "address"
        },
        {
          "name": "_timeWeight",
          "type": "uint256",
          "internalType": "uint256"
        },
        {
          "name": "_interactionCountWeight",
          "type": "uint256",
          "internalType": "uint256"
        }
      ],
      "stateMutability": "nonpayable"
    },
    {
      "type": "function",
      "name": "baseRewardRate",
      "inputs": [],
      "outputs": [
        {
          "name": "",
          "type": "uint256",
          "internalType": "uint256"
        }
      ],
      "stateMutability": "view"
    },
    {
      "type": "function",
      "name": "calculateRewards",
      "inputs": [
        {
          "name": "_hashedUserIds",
          "type": "uint256",
          "internalType": "uint256"
        }
      ],
      "outputs": [
        {
          "name": "",
          "type": "uint256",
          "internalType": "uint256"
        }
      ],
      "stateMutability": "view"
    },
    {
      "type": "function",
      "name": "getAdminAddress",
      "inputs": [],
      "outputs": [
        {
          "name": "",
          "type": "address",
          "internalType": "address"
        }
      ],
      "stateMutability": "view"
    },
    {
      "type": "function",
      "name": "getBaseRewardRate",
      "inputs": [],
      "outputs": [
        {
          "name": "",
          "type": "uint256",
          "internalType": "uint256"
        }
      ],
      "stateMutability": "view"
    },
    {
      "type": "function",
      "name": "getIceBreakerFee",
      "inputs": [],
      "outputs": [
        {
          "name": "",
          "type": "uint256",
          "internalType": "uint256"
        }
      ],
      "stateMutability": "view"
    },
    {
      "type": "function",
      "name": "getInteractionCount",
      "inputs": [
        {
          "name": "_userA",
          "type": "uint256",
          "internalType": "uint256"
        },
        {
          "name": "_userB",
          "type": "uint256",
          "internalType": "uint256"
        }
      ],
      "outputs": [
        {
          "name": "",
          "type": "uint256",
          "internalType": "uint256"
        }
      ],
      "stateMutability": "view"
    },
    {
      "type": "function",
      "name": "getLastRewardTime",
      "inputs": [
        {
          "name": "_userA",
          "type": "uint256",
          "internalType": "uint256"
        },
        {
          "name": "_userB",
          "type": "uint256",
          "internalType": "uint256"
        }
      ],
      "outputs": [
        {
          "name": "",
          "type": "uint256",
          "internalType": "uint256"
        }
      ],
      "stateMutability": "view"
    },
    {
      "type": "function",
      "name": "getMinReward",
      "inputs": [],
      "outputs": [
        {
          "name": "",
          "type": "uint256",
          "internalType": "uint256"
        }
      ],
      "stateMutability": "view"
    },
    {
      "type": "function",
      "name": "getMinimumRewardInterval",
      "inputs": [],
      "outputs": [
        {
          "name": "",
          "type": "uint256",
          "internalType": "uint256"
        }
      ],
      "stateMutability": "view"
    },
    {
      "type": "function",
      "name": "iceBreakerFee",
      "inputs": [],
      "outputs": [
        {
          "name": "",
          "type": "uint256",
          "internalType": "uint256"
        }
      ],
      "stateMutability": "view"
    },
    {
      "type": "function",
      "name": "minReward",
      "inputs": [],
      "outputs": [
        {
          "name": "",
          "type": "uint256",
          "internalType": "uint256"
        }
      ],
      "stateMutability": "view"
    },
    {
      "type": "function",
      "name": "minimumRewardInterval",
      "inputs": [],
      "outputs": [
        {
          "name": "",
          "type": "uint256",
          "internalType": "uint256"
        }
      ],
      "stateMutability": "view"
    },
    {
      "type": "function",
      "name": "owner",
      "inputs": [],
      "outputs": [
        {
          "name": "",
          "type": "address",
          "internalType": "address"
        }
      ],
      "stateMutability": "view"
    },
    {
      "type": "function",
      "name": "renounceOwnership",
      "inputs": [],
      "outputs": [],
      "stateMutability": "nonpayable"
    },
    {
      "type": "function",
      "name": "rewardUsers",
      "inputs": [
        {
          "name": "_senderAddress",
          "type": "address",
          "internalType": "address"
        },
        {
          "name": "_senderId",
          "type": "uint256",
          "internalType": "uint256"
        },
        {
          "name": "_receiverAddress",
          "type": "address",
          "internalType": "address"
        },
        {
          "name": "_receiverId",
          "type": "uint256",
          "internalType": "uint256"
        },
        {
          "name": "_timestamp",
          "type": "uint256",
          "internalType": "uint256"
        }
      ],
      "outputs": [],
      "stateMutability": "nonpayable"
    },
    {
      "type": "function",
      "name": "sendIceBreaker",
      "inputs": [
        {
          "name": "_invitee",
          "type": "address",
          "internalType": "address"
        }
      ],
      "outputs": [],
      "stateMutability": "nonpayable"
    },
    {
      "type": "function",
      "name": "setAdmin",
      "inputs": [
        {
          "name": "_admin",
          "type": "address",
          "internalType": "address"
        }
      ],
      "outputs": [],
      "stateMutability": "nonpayable"
    },
    {
      "type": "function",
      "name": "setBaseRewardRate",
      "inputs": [
        {
          "name": "_baseRewardRate",
          "type": "uint256",
          "internalType": "uint256"
        }
      ],
      "outputs": [],
      "stateMutability": "nonpayable"
    },
    {
      "type": "function",
      "name": "setIceBreakerFee",
      "inputs": [
        {
          "name": "_iceBreakerFee",
          "type": "uint256",
          "internalType": "uint256"
        }
      ],
      "outputs": [],
      "stateMutability": "nonpayable"
    },
    {
      "type": "function",
      "name": "setInteractionCountWeight",
      "inputs": [
        {
          "name": "_interactionCountWeight",
          "type": "uint256",
          "internalType": "uint256"
        }
      ],
      "outputs": [],
      "stateMutability": "nonpayable"
    },
    {
      "type": "function",
      "name": "setMinReward",
      "inputs": [
        {
          "name": "_minReward",
          "type": "uint256",
          "internalType": "uint256"
        }
      ],
      "outputs": [],
      "stateMutability": "nonpayable"
    },
    {
      "type": "function",
      "name": "setMinimumRewardInterval",
      "inputs": [
        {
          "name": "_minimumRewardInterval",
          "type": "uint256",
          "internalType": "uint256"
        }
      ],
      "outputs": [],
      "stateMutability": "nonpayable"
    },
    {
      "type": "function",
      "name": "setTimeWeight",
      "inputs": [
        {
          "name": "_timeWeight",
          "type": "uint256",
          "internalType": "uint256"
        }
      ],
      "outputs": [],
      "stateMutability": "nonpayable"
    },
    {
      "type": "function",
      "name": "setTreasury",
      "inputs": [
        {
          "name": "_treasury",
          "type": "address",
          "internalType": "address"
        }
      ],
      "outputs": [],
      "stateMutability": "nonpayable"
    },
    {
      "type": "function",
      "name": "tipUser",
      "inputs": [
        {
          "name": "_user",
          "type": "address",
          "internalType": "address"
        },
        {
          "name": "_amount",
          "type": "uint256",
          "internalType": "uint256"
        }
      ],
      "outputs": [],
      "stateMutability": "nonpayable"
    },
    {
      "type": "function",
      "name": "transferOwnership",
      "inputs": [
        {
          "name": "newOwner",
          "type": "address",
          "internalType": "address"
        }
      ],
      "outputs": [],
      "stateMutability": "nonpayable"
    },
    {
      "type": "function",
      "name": "userInteractions",
      "inputs": [
        {
          "name": "hashedUserIds",
          "type": "uint256",
          "internalType": "uint256"
        }
      ],
      "outputs": [
        {
          "name": "interactionCount",
          "type": "uint128",
          "internalType": "uint128"
        },
        {
          "name": "lastRewardTime",
          "type": "uint128",
          "internalType": "uint128"
        }
      ],
      "stateMutability": "view"
    },
    {
      "type": "function",
      "name": "withdraw",
      "inputs": [],
      "outputs": [],
      "stateMutability": "nonpayable"
    },
    {
      "type": "event",
      "name": "BalanceWithdrawn",
      "inputs": [
        {
          "name": "owner",
          "type": "address",
          "indexed": true,
          "internalType": "address"
        },
        {
          "name": "amount",
          "type": "uint256",
          "indexed": false,
          "internalType": "uint256"
        }
      ],
      "anonymous": false
    },
    {
      "type": "event",
      "name": "IceBreakerSent",
      "inputs": [
        {
          "name": "user",
          "type": "address",
          "indexed": true,
          "internalType": "address"
        },
        {
          "name": "invitee",
          "type": "address",
          "indexed": true,
          "internalType": "address"
        }
      ],
      "anonymous": false
    },
    {
      "type": "event",
      "name": "OwnershipTransferred",
      "inputs": [
        {
          "name": "previousOwner",
          "type": "address",
          "indexed": true,
          "internalType": "address"
        },
        {
          "name": "newOwner",
          "type": "address",
          "indexed": true,
          "internalType": "address"
        }
      ],
      "anonymous": false
    },
    {
      "type": "event",
      "name": "RewardUser",
      "inputs": [
        {
          "name": "user",
          "type": "address",
          "indexed": true,
          "internalType": "address"
        },
        {
          "name": "reward",
          "type": "uint256",
          "indexed": false,
          "internalType": "uint256"
        }
      ],
      "anonymous": false
    },
    {
      "type": "event",
      "name": "TipSent",
      "inputs": [
        {
          "name": "sender",
          "type": "address",
          "indexed": true,
          "internalType": "address"
        },
        {
          "name": "receiver",
          "type": "address",
          "indexed": true,
          "internalType": "address"
        },
        {
          "name": "amount",
          "type": "uint256",
          "indexed": false,
          "internalType": "uint256"
        }
      ],
      "anonymous": false
    },
    {
      "type": "error",
      "name": "AddressEmptyCode",
      "inputs": [
        {
          "name": "target",
          "type": "address",
          "internalType": "address"
        }
      ]
    },
    {
      "type": "error",
      "name": "AddressInsufficientBalance",
      "inputs": [
        {
          "name": "account",
          "type": "address",
          "internalType": "address"
        }
      ]
    },
    {
      "type": "error",
      "name": "FailedInnerCall",
      "inputs": []
    },
    {
      "type": "error",
      "name": "IceBreakerFeeError",
      "inputs": []
    },
    {
      "type": "error",
      "name": "InteractionError",
      "inputs": []
    },
    {
      "type": "error",
      "name": "OnlyAdminError",
      "inputs": []
    },
    {
      "type": "error",
      "name": "OwnableInvalidOwner",
      "inputs": [
        {
          "name": "owner",
          "type": "address",
          "internalType": "address"
        }
      ]
    },
    {
      "type": "error",
      "name": "OwnableUnauthorizedAccount",
      "inputs": [
        {
          "name": "account",
          "type": "address",
          "internalType": "address"
        }
      ]
    },
    {
      "type": "error",
      "name": "ReentrancyGuardReentrantCall",
      "inputs": []
    },
    {
      "type": "error",
      "name": "RewardIntervalError",
      "inputs": []
    },
    {
      "type": "error",
      "name": "RewardTransferFailedError",
      "inputs": []
    },
    {
      "type": "error",
      "name": "SafeERC20FailedOperation",
      "inputs": [
        {
          "name": "token",
          "type": "address",
          "internalType": "address"
        }
      ]
    },
    {
      "type": "error",
      "name": "TipUserError",
      "inputs": []
    },
    {
      "type": "error",
      "name": "WithdrawalError",
      "inputs": []
    }
  ],
  "bytecode": {
    "object": "0x60a060405234801561001057600080fd5b5060405161134b38038061134b83398101604081905261002f91610136565b896001600160a01b03811661005e57604051631e4fbdf760e01b81526000600482015260240160405180910390fd5b610067816100ca565b50600180556008969096556006979097556007959095556009929092556001600160a01b03908116608052600280549282166001600160a01b031993841617905560038054949091169390911692909217909155600491909155600555506101c6565b600080546001600160a01b038381166001600160a01b0319831681178455604051919092169283917f8be0079c531659141344cd1fd0a4f28419497f9722a3daafe3b4186f6b6457e09190a35050565b80516001600160a01b038116811461013157600080fd5b919050565b6000806000806000806000806000806101408b8d03121561015657600080fd5b61015f8b61011a565b995060208b0151985060408b0151975060608b0151965060808b0151955061018960a08c0161011a565b945061019760c08c0161011a565b93506101a560e08c0161011a565b92506101008b015191506101208b015190509295989b9194979a5092959850565b60805161115c6101ef600039600081816103fb015281816105c40152610afe015261115c6000f3fe608060405234801561001057600080fd5b50600436106101c45760003560e01c8063906345c1116100f9578063ba16d60011610097578063d3ea435011610071578063d3ea43501461038d578063f0a9abe7146103a0578063f0f44260146103b3578063f2fde38b146103c657600080fd5b8063ba16d60014610368578063c47a3b6214610371578063d08561a31461037a57600080fd5b8063afbf3440116100d3578063afbf344014610333578063b2e6b9121461033c578063b4f53e9d1461034d578063b6a1cb2b1461035557600080fd5b8063906345c11461030557806394939a9f14610318578063aa5ca5221461032b57600080fd5b8063531fee6f11610166578063704b6c0211610140578063704b6c02146102b2578063715018a6146102c557806378267e62146102cd5780638da5cb5b146102e057600080fd5b8063531fee6f146102385780635bcac6601461024b578063688fa1621461029f57600080fd5b80632efe308b116101a25780632efe308b14610202578063332d03251461020a5780633ccfd60b1461021d57806351a591d21461022557600080fd5b8063023db643146101c957806315688ecf146101de57806326329301146101fa575b600080fd5b6101dc6101d7366004610e87565b6103d9565b005b6101e760085481565b6040519081526020015b60405180910390f35b6007546101e7565b6008546101e7565b6101dc610218366004610ebc565b6103e6565b6101dc610470565b6101e7610233366004610ee6565b61056e565b6101dc610246366004610f08565b6105a8565b61027f610259366004610e87565b600a602052600090815260409020546001600160801b0380821691600160801b90041682565b604080516001600160801b039384168152929091166020830152016101f1565b6101dc6102ad366004610e87565b610634565b6101dc6102c0366004610f08565b610641565b6101dc61066b565b6101dc6102db366004610f23565b61067d565b6000546001600160a01b03165b6040516001600160a01b0390911681526020016101f1565b6101dc610313366004610e87565b6107a2565b6101e7610326366004610ee6565b6107af565b6009546101e7565b6101e760065481565b6003546001600160a01b03166102ed565b6006546101e7565b6101dc610363366004610e87565b6107e0565b6101e760075481565b6101e760095481565b6101dc610388366004610e87565b6107ed565b6101e761039b366004610e87565b6107fa565b6101dc6103ae366004610e87565b6108ca565b6101dc6103c1366004610f08565b6108d7565b6101dc6103d4366004610f08565b610901565b6103e1610941565b600455565b6103ee61096e565b6104236001600160a01b037f000000000000000000000000000000000000000000000000000000000000000016338484610998565b6040518181526001600160a01b0383169033907f944676cc66b56faa2e31ce8f94f620789dda8488308d59491fabc492867d4cec9060200160405180910390a361046c60018055565b5050565b61047861096e565b610480610941565b4760006104956000546001600160a01b031690565b90506000816001600160a01b0316836040516104b99061060f60f31b815260020190565b60006040518083038185875af1925050503d80600081146104f6576040519150601f19603f3d011682016040523d82523d6000602084013e6104fb565b606091505b505090508061051d57604051639e0eb9f560e01b815260040160405180910390fd5b816001600160a01b03167fddc398b321237a8d40ac914388309c2f52a08c134e4dc4ce61e32f57cb7d80f18460405161055891815260200190565b60405180910390a250505061056c60018055565b565b6000600a600061057e85856109f8565b8152602081019190915260400160002054600160801b90046001600160801b031690505b92915050565b6105b061096e565b6002546008546105f2916001600160a01b037f000000000000000000000000000000000000000000000000000000000000000081169233929190911690610998565b6040516001600160a01b0382169033907f182311f5066704b409cd3a8de29236e93d3e89bebad6dbf65612089c144eae1390600090a361063160018055565b50565b61063c610941565b600955565b610649610941565b600380546001600160a01b0319166001600160a01b0392909216919091179055565b610673610941565b61056c6000610a52565b61068561096e565b6003546001600160a01b031633146106b057604051631886ea7d60e11b815260040160405180910390fd5b838260006106be83836109f8565b6009546000828152600a6020526040902054919250906106ee90600160801b90046001600160801b031642610f87565b10801561071157506000818152600a60205260409020546001600160801b031615155b1561072f576040516390ce710560e01b815260040160405180910390fd5b600061073b88876109f8565b90506000610748826107fa565b6000838152600a6020526040902080546001600160801b03808a16600160801b029116179055905061077982610aa2565b6107838a82610aed565b61078d8882610aed565b505050505061079b60018055565b5050505050565b6107aa610941565b600855565b6000600a60006107bf85856109f8565b81526020810191909152604001600020546001600160801b03169392505050565b6107e8610941565b600755565b6107f5610941565b600555565b6000818152600a602090815260408083208151808301909252546001600160801b03808216808452600160801b909204169282018390529091839062015180906108449042610f87565b61084e9190610fb0565b9050600080836000036108665750506006548061087d565b61086f84610b6f565b915061087a83610bcc565b90505b600060646004548361088f9190610fc4565b60055461089c9086610fc4565b6108a69190610fdb565b6108b09190610fb0565b905060006108bd82610c11565b9998505050505050505050565b6108d2610941565b600655565b6108df610941565b600280546001600160a01b0319166001600160a01b0392909216919091179055565b610909610941565b6001600160a01b03811661093857604051631e4fbdf760e01b8152600060048201526024015b60405180910390fd5b61063181610a52565b6000546001600160a01b0316331461056c5760405163118cdaa760e01b815233600482015260240161092f565b60026001540361099157604051633ee5aeb560e01b815260040160405180910390fd5b6002600155565b604080516001600160a01b0385811660248301528416604482015260648082018490528251808303909101815260849091019091526020810180516001600160e01b03166323b872dd60e01b1790526109f2908590610ce8565b50505050565b6000806000838510610a0b578385610a0e565b84845b9150915060008282604051602001610a30929190918252602082015260400190565b60408051808303601f1901815291905280516020909101209695505050505050565b600080546001600160a01b038381166001600160a01b0319831681178455604051919092169283917f8be0079c531659141344cd1fd0a4f28419497f9722a3daafe3b4186f6b6457e09190a35050565b6000818152600a6020526040812080546001600160801b031691610ac583610fee565b91906101000a8154816001600160801b0302191690836001600160801b031602179055505050565b600254610b28906001600160a01b037f0000000000000000000000000000000000000000000000000000000000000000811691168484610998565b816001600160a01b03167f1b0f90c0b73ff53b6214d863ca6ef1fc552d7fd947567f98af9ad119439b964582604051610b6391815260200190565b60405180910390a25050565b600060328210610b8157505060075490565b60006032600954600654610b959190610f87565b610b9f9085610fc4565b610ba99190610fb0565b600654610bb69190610f87565b90506007548110156105a2575050600754919050565b6000601c8210610bde57505060065490565b601c600754600654610bf09190610f87565b610bfa9084610fc4565b610c049190610fb0565b6007546105a29190610fdb565b60008060284244604051602001610c32929190918252602082015260400190565b6040516020818303038152906040528051906020012060001c610c559190611014565b90506000610c64601483611028565b905060006064610c74868461104f565b610c7e919061107f565b610c8890866110ad565b905060075481128015610c9d57506000600754115b15610cc157670de0b6b3a7640000600754610cb89190610f87565b95945050505050565b600654811315610ce057600654610cb8906729a2241af62c0000610fdb565b949350505050565b6000610cfd6001600160a01b03841683610d50565b90508051600014158015610d22575080806020019051810190610d2091906110d5565b155b15610d4b57604051635274afe760e01b81526001600160a01b038416600482015260240161092f565b505050565b6060610d5e83836000610d65565b9392505050565b606081471015610d8a5760405163cd78605960e01b815230600482015260240161092f565b600080856001600160a01b03168486604051610da691906110f7565b60006040518083038185875af1925050503d8060008114610de3576040519150601f19603f3d011682016040523d82523d6000602084013e610de8565b606091505b5091509150610df8868383610e02565b9695505050505050565b606082610e1757610e1282610e5e565b610d5e565b8151158015610e2e57506001600160a01b0384163b155b15610e5757604051639996b31560e01b81526001600160a01b038516600482015260240161092f565b5080610d5e565b805115610e6e5780518082602001fd5b604051630a12f52160e11b815260040160405180910390fd5b600060208284031215610e9957600080fd5b5035919050565b80356001600160a01b0381168114610eb757600080fd5b919050565b60008060408385031215610ecf57600080fd5b610ed883610ea0565b946020939093013593505050565b60008060408385031215610ef957600080fd5b50508035926020909101359150565b600060208284031215610f1a57600080fd5b610d5e82610ea0565b600080600080600060a08688031215610f3b57600080fd5b610f4486610ea0565b945060208601359350610f5960408701610ea0565b94979396509394606081013594506080013592915050565b634e487b7160e01b600052601160045260246000fd5b818103818111156105a2576105a2610f71565b634e487b7160e01b600052601260045260246000fd5b600082610fbf57610fbf610f9a565b500490565b80820281158282048414176105a2576105a2610f71565b808201808211156105a2576105a2610f71565b60006001600160801b0380831681810361100a5761100a610f71565b6001019392505050565b60008261102357611023610f9a565b500690565b818103600083128015838313168383128216171561104857611048610f71565b5092915050565b80820260008212600160ff1b8414161561106b5761106b610f71565b81810583148215176105a2576105a2610f71565b60008261108e5761108e610f9a565b600160ff1b8214600019841416156110a8576110a8610f71565b500590565b80820182811260008312801582168215821617156110cd576110cd610f71565b505092915050565b6000602082840312156110e757600080fd5b81518015158114610d5e57600080fd5b6000825160005b8181101561111857602081860181015185830152016110fe565b50600092019182525091905056fea264697066735822122009c4945a92e70aa8046f52527d2b60e08eed87b590bf591e26bff194415ca57064736f6c63430008190033",
    "linkReferences": {}
  },
  "methodIdentifiers": {
    "baseRewardRate()": "afbf3440",
    "calculateRewards(uint256)": "d3ea4350",
    "getAdminAddress()": "b2e6b912",
    "getBaseRewardRate()": "b4f53e9d",
    "getIceBreakerFee()": "2efe308b",
    "getInteractionCount(uint256,uint256)": "94939a9f",
    "getLastRewardTime(uint256,uint256)": "51a591d2",
    "getMinReward()": "26329301",
    "getMinimumRewardInterval()": "aa5ca522",
    "iceBreakerFee()": "15688ecf",
    "minReward()": "ba16d600",
    "minimumRewardInterval()": "c47a3b62",
    "owner()": "8da5cb5b",
    "renounceOwnership()": "715018a6",
    "rewardUsers(address,uint256,address,uint256,uint256)": "78267e62",
    "sendIceBreaker(address)": "531fee6f",
    "setAdmin(address)": "704b6c02",
    "setBaseRewardRate(uint256)": "f0a9abe7",
    "setIceBreakerFee(uint256)": "906345c1",
    "setInteractionCountWeight(uint256)": "d08561a3",
    "setMinReward(uint256)": "b6a1cb2b",
    "setMinimumRewardInterval(uint256)": "688fa162",
    "setTimeWeight(uint256)": "023db643",
    "setTreasury(address)": "f0f44260",
    "tipUser(address,uint256)": "332d0325",
    "transferOwnership(address)": "f2fde38b",
    "userInteractions(uint256)": "5bcac660",
    "withdraw()": "3ccfd60b"
  },
  "id": 41
}